:020000040800F2
:100000000000012019140008A1120008A312000822
:10001000A5120008A7120008A9120008000000009D
:10002000000000000000000000000000AD12000809
:10003000D512000800000000D912000811130008B2
:1000400061140008611400086114000861140008BC
:1000500061140008611400086114000861140008AC
:10006000611400086114000861140008611400089C
:10007000611400086114000861140008611400088C
:10008000611400086114000861140008611400087C
:10009000611400086114000861140008611400086C
:1000A000611400086114000861140008611400085C
:1000B000611400086114000861140008611400084C
:1000C000611400086114000861140008611400083C
:1000D000611400086114000861140008611400082C
:1000E000611400086114000861140008611400081C
:1000F000611400086114000861140008611400080C
:1001000061140008611400086114000861140008FB
:1001100061140008611400086114000861140008EB
:1001200061140008611400086114000861140008DB
:1001300000000000000000000000000000000000BF
:1001400000000000000000000000000000000000AF
:10015000000000000000000000000000000000009F
:10016000000000000000000000000000000000008F
:10017000000000000000000000000000000000007F
:10018000000000000000000000000000000000006F
:10019000000000000000000000000000000000005F
:1001A000000000000000000000000000000000004F
:1001B000000000000000000000000000000000003F
:1001C000000000000000000000000000000000002F
:1001D000000000000000000000000000000000001F
:0401E0005FF8E0F1F3
:1001E40010B5054C237833B9044B13B10448AFF36D
:1001F40000800123237010BD700000200000000067
:100204008816000808B5034B1BB103490348AFF334
:10021400008008BD0000000074000020881600085B
:10022400034613F8012B002AFBD1181A0138704732
:1002340038B50E4B054618784FF47A73B3FBF0F3D8
:100244000B4A1068B0FBF3F000F092F8044658B97A
:100254000F2D09D8024629464FF0FF3000F054F81C
:10026400044B20461D6038BD012038BD000000202D
:100274000800002004000020074A08B51368032082
:1002840043F01003136000F02DF80020FFF7D0FFB7
:1002940000F0A6FF002008BD00200240034A044BE2
:1002A40011681B780B441360704700BF980000204E
:1002B40000000020014B1868704700BF9800002020
:1002C40038B50446FFF7F6FF0546631C1EBF044B12
:1002D4001B78E418FFF7EEFF401B8442FAD838BDC0
:1002E40000000020074A0002D36800F4E06023F411
:1002F400E0631B041B0C43F0BF6343F4003303436C
:10030400D360704700ED00E0174B30B5DC68C4F3F0
:100314000224C4F10703251D042B28BF0423062D42
:100324004FF0010598BF002405FA03F303F1FF33EE
:1003340088BF033C1940A14005FA04F4013C224063
:10034400002842EA01024FEA0212A9BF00F160400C
:10035400064BD2B200F56140BBBF00F00F00D2B231
:1003640080F800231A5430BD00ED00E014ED00E0E5
:100374000138B0F1807F0AD2F021064B064A58605A
:1003840082F823100020072298601A607047012029
:10039400704700BF10E000E000ED00E02DE9F74FEA
:1003A400002426466C4F6D4BDFF8B8E1DFF8B8C186
:1003B4000A6832FA06F502D103B0BDE8F08F4FF0B7
:1003C400010808FA06F802EA0802904540F0848021
:1003D4004D68122D00F0B18000F28780022D00F0EC
:1003E400A9807BD8002D00F08C80012D00F0A08026
:1003F4004FF00F09FF2A93BF824606F18045083D5E
:10040400D0F800B092BFB500D0F804B0AD0009FA3E
:1004140005F82BEA080804FA05F588BF00F1040A78
:1004240048EA0505CAF80050D1F804A01AF0805F24
:1004340052D0BD6926F0030845F00105BD61BD69D0
:1004440008F1804805F00105019508F5803806F0AB
:10045400030B019D4FEA8B0BD8F8085009FA0BF9EE
:1004640025EA09093E4DA8426CD005F58065A842ED
:100474006AD005F58065A84268D005F58065A84274
:1004840066D005F58065A84264D070450CBF05258B
:10049400062505FA0BF545EA0905C8F808501D6854
:1004A4001AF4803F14BF154395431D605D681AF428
:1004B400003F14BF154395435D609D681AF4801F87
:1004C40014BF154395439D60DD681AF4001F14BFE3
:1004D4002A4325EA0202DA60013669E7032D25D0B2
:1004E400112D85D1CC68043482E7654509D012D832
:1004F400DFF878904D4504D009F580394D457FF4F7
:1005040077AF8C68E4B1012C0CBFC0F81080C0F840
:10051400148008246CE7DFF858904D45F1D009F5B4
:1005240080394D45EDD0A9F58019E7E700245FE750
:10053400CC685DE7CC6808345AE7CC680C3457E7DC
:10054400042455E70025A4E70125A2E70225A0E736
:1005540003259EE704259CE70010024000040140A7
:1005640000080140001C014000002110000011108F
:10057400000031100AB1016170470904FBE7000073
:100584002DE9F341054608B901203CE00368DB0787
:1005940010D42B689F075DD42B68190700F1948051
:1005A4002B685A0700F1BE80E869002840F02C81CE
:1005B400002028E08F4C636803F00C03042B07D061
:1005C400636803F00C03082B09D16368DE0306D5C6
:1005D40023689C03DDD56B68002BDAD1D4E76B6804
:1005E400B3F5803F12D1236843F480332360FFF7CF
:1005F40061FE064623689803CBD4FFF75BFE801B9D
:100604006428F7D9032002B0BDE8F0819BB92368C0
:1006140023F480332360236823F480232360FFF7CB
:1006240049FE064623689903B3D5FFF743FE801BB2
:100634006428F7D9E6E7B3F5A02F236803D143F480
:1006440080232360CFE723F480332360236823F4DB
:100654008023CBE7674C636813F00C0F07D0636803
:1006640003F00C03082B10D16368DA030DD423685C
:100674009B0702D52B69012B86D123686A6923F075
:10068400F80343EAC203236086E72A695A4B6AB136
:1006940001221A60FFF70EFE064623689F07ECD47A
:1006A400FFF708FE801B0228F7D9ABE71A60FFF7B3
:1006B40001FE0646236898077FF56EAFFFF7FAFD43
:1006C400801B0228F6D99DE7AA694A4C4B4BDAB144
:1006D40001221A60FFF7EEFD0646636A9B070DD5FB
:1006E4004FF4FA52464B1B68B3FBF2F3019300BF7D
:1006F400019B5A1E0192002BF9D151E7FFF7DAFD55
:10070400801B0228E9D97DE71A60FFF7D3FD06466E
:10071400636A9F077FF544AFFFF7CCFD801B022877
:10072400F6D96FE7334CE369D80024D40127E36991
:1007340043F08053E361E36903F080530093009B2B
:10074400304E3368D90518D5EB68012B26D1236ABE
:1007540043F001032362FFF7ADFD41F28836804682
:10076400236A9B073FD5002F3FF41EAFE36923F0B4
:100774008053E36118E70027E2E7336843F48073AA
:100784003360FFF797FD80463368DA05DCD4FFF762
:1007940091FDA0EB08006428F6D933E7ABB9236ACE
:1007A40041F2883823F001032362236A23F004030F
:1007B4002362FFF77FFD0646236A9807D3D5FFF728
:1007C40079FD801B4045F7D91CE7052B236A03D12B
:1007D40043F004032362BAE723F001032362236A8C
:1007E40023F00403B6E7FFF765FDA0EB0800B04271
:1007F400B6D907E70010024000004242800442429A
:1008040008000020007000402A4B5A681C4602F081
:100814000C02082A3DD00023274E022833602BD136
:10082400FFF748FD0746236899011FD42B6AB3F5E7
:10083400803F05D16268A96822F400320A436260ED
:10084400696A62680B4322F47412134363600123E0
:100854003360FFF72FFD054623689A013FF5A8AEE4
:10086400FFF728FD401B0228F6D9CBE6FFF722FD4F
:10087400C01B0228D7D9C5E6FFF71CFD054623682F
:100884009B017FF595AEFFF715FD401B0228F6D9B5
:10089400B8E601283FF4B7AE58682B6A00F48032FA
:1008A4009A427FF471AE6B6A00F47010C01A18BFDC
:1008B4000120A8E6001002406000424230B5194B06
:1008C40087B002AC03F11005224618685968083352
:1008D40003C2AB421446F7D101238DF8043002233E
:1008E40011498DF805304B6803F00C02082A17D122
:1008F400C3F3834206A80244DB0312F8102C0CD580
:100904004B680A48C3F34043504306AA134413F800
:10091400143CB0FBF3F007B030BD05485043FAE790
:100924000248F8E7A01600080010024000127A00FE
:1009340000093D002DE9F0410D46044610B901209F
:10094400BDE8F081454A136803F007038B4229D3BD
:1009540021688E0731D4CA0744D4404A136803F08F
:1009640007039D4267D322683D4D12F0040F6ED1F8
:10097400130706D56B68226923F4605343EAC20364
:100984006B60FFF79BFF6B68364AC3F30313D35CBA
:10099400D840354B1860354B1868FFF749FC0020E8
:1009A400BDE8F081136823F007030B431360136859
:1009B40003F007039942C2D1CAE7294B11F0040F8F
:1009C4001EBF5A6842F4E0625A60080742BF5A6880
:1009D40042F460525A605A68A06822F0F00202435E
:1009E4005A60B8E762681E4E012A33681BD113F4BB
:1009F400003FA4D0736841F2883823F00303134303
:100A04007360FFF757FC07467368626803F00C03D2
:100A1400B3EB820FA1D0FFF74DFCC01B4045F3D9C7
:100A24000320BDE8F081022A02D113F0007FE0E741
:100A340013F0020FDDE7136823F007032B43136061
:100A4400136803F007039D427FF479AF8BE76B686B
:100A5400E16823F4E0630B436B6089E70020024004
:100A640000100240C2160008080000200400002004
:100A7400044B054A5B68C3F30223D35C034A106842
:100A8400D840704700100240D21600080800002029
:100A9400044B054A5B68C3F3C223D35C034A106862
:100AA400D840704700100240D21600080800002009
:100AB40038B505460368C1681A69192422F44052FE
:100AC4000A431A6182680069D9680243686921F49B
:100AD400B05121F00C0102430A43DA605A69A96952
:100AE40022F440720A435A610D4A934214D1FFF72B
:100AF400CFFF60436C686422A400B0FBF4F0B0FB49
:100B0400F2F402FB14031B013233B3FBF2F3296842
:100B140003EB04138B6038BDFFF7AAFFE9E700BFBE
:100B240000380140F8B504460E4617461D462168B4
:100B34000B6836EA030301D10020F8BD6B1CF7D023
:100B440095B923680320DA6822F4D072DA605A690E
:100B540022F001025A61202384F8393084F83A30B3
:100B6400002384F83830F8BDFFF7A4FBC01B85428E
:100B7400DDD2E6E710B5044640B390F8393003F00F
:100B8400FF021BB980F8382000F04CFB24232268B4
:100B940084F83930D368204623F40053D360FFF738
:100BA40087FF236800201A6922F490421A615A6967
:100BB40022F02A025A61DA6842F40052DA602023F1
:100BC400E06384F8393084F83A3010BD012010BD58
:100BD4002DE9F0411F4690F839300446202B0D468C
:100BE40090464ED1002949D0002A47D090F8383099
:100BF400012B46D0012380F838300023C36321231E
:100C040080F83930FFF756FB0646A4F82480A4F890
:100C14002680E38C9BB26BB93B463246402120468A
:100C2400FFF780FFA8B9202384F8380084F839300E
:100C3400BDE8F081E38C3246013B9BB2E384A368B8
:100C44008021B3F5805F20463B460ED1FFF76AFF53
:100C540010B10320BDE8F0812B882268C3F3080398
:100C64005360236943B90235D3E7FFF75BFF0028DC
:100C7400EFD123682A785A600135CAE70120BDE81C
:100C8400F0810220BDE8F0817FB500F016FA002360
:100C94000193049301230B4A009305920A4A1360BB
:100CA4004FF0FF330293602302220393074B1A7021
:100CB40000F05EF900F006F9684600F01BF907B091
:100CC4005DF804FBB9110008A00000209C0000207E
:100CD400012208B5044B1A7000F0E6F900F038F967
:100CE400BDE8084000F06CBA9C00002010B5044632
:100CF400102000F0DFFB20B1002380E81800C3605F
:100D0400836010BD70B50C46054610B309B3036883
:100D140033B9E960AC602B68002001332B6070BDEF
:100D2400436823B9EB68A3605C60EC60F3E7866812
:100D3400002EF7D06B6821463046984758B1766844
:100D4400F6E7B3686660A360B36803B15C60B4603F
:100D5400E1E7062070BDAB689E42F2D16660B460E4
:100D6400D8E710B500282FD000292DD00368002B18
:100D74002CD08268C46891420CD1013B03604B685B
:100D840083600BB100229A60A14204BF4B68C36028
:100D9400002010BDA14213D1013B03608B68C360E6
:100DA400002BF5D00020586010BD8A42546806D14B
:100DB400013B036093685C6052689360E8E72246F5
:100DC400002AF2D1072010BD062010BD042010BD5A
:100DD4002DE9F84F894616461F460446002857D089
:100DE40012F0100B01D1002952D0DFF8B080DFF8E7
:100DF400B0A006F004050DB100F05FF9A2686368C5
:100E04009A4234D9BBF1000F0FD122684946606978
:100E140000F060FB62692368E168A0681A4400FB83
:100E240003139A42626128BF61616368013363609E
:100E3400A3691B68ABB1DFF86890A069D0F808809B
:100E44004146FFF78EFF4146D9F80000FFF75AFFED
:100E5400A3691B68002BF0D1330702D50FB102231D
:100E64003B700DB100F020F90020BDE8F88F95B17A
:100E7400D8F80010DAF80000FFF773FFD8F8001074
:100E8400E069FFF73FFF00F00FF900F0DFF8B2E789
:100E94000620BDE8F88F0320BDE8F88FAC000020E1
:100EA400A400002059B158B1036843B10A6832B1B3
:100EB40090689B68984294BF0020012070470620E8
:100EC4007047000008B50448FFF710FF034B186093
:100ED400B0FA80F0400908BDA90E0008A400002063
:100EE400014618B1024B1868FFF70CBF0620704783
:100EF400A4000020F7B5054618B3C76807F1280019
:100F040000F0D8FA0446E0B1009700F1280300F19C
:100F14000C062A692430696900F0A4F82B6826605D
:100F2400E36001232361AB68204663616B69E3617D
:100F3400EB6823620023A3606360FFF7D1FF08B16D
:100F4400FEE70024204603B0F0BD00F07FB80000A7
:100F5400044B054A1B689B6813601B68034A1833DB
:100F640013607047A4000020AC000020A8000020FB
:100F740008B50020FFF7BAFE024B1860B0FA80F003
:100F8400400908BDB00000201FB5094901A800F0C0
:100F94006FFB084C01A8FFF743F94FF0FF3382B20F
:100FA40001A92046FFF714FE0A20FFF789F9F1E7AB
:100FB400B0160008B40000201FB50023019302936B
:100FC400ADF80C30FF230B4901A88DF8043000F074
:100FD4004FFB094C01A8FFF723F94FF0FF3382B20E
:100FE40001A92046FFF7F4FD4FF49670FFF768F966
:100FF400F0E700BFB9160008B4000020142300B5C0
:1010040089B0019300F08CF8FFF73EFE0123002421
:101014004FF4007502930A4B02A8079301AB0693A1
:1010240003940595FFF766FF03230293054B02A87B
:10103400079305950694FFF75DFFFFF749FEFEE76A
:101044008D0F0008BD0F0008FEE700004FF080522E
:10105400034B1A60BFF34F8FBFF36F8F704700BF0E
:1010640004ED00E030B5D8B1D1B1CBB1039D21F08E
:101074000101403D5C190460226200220948A16319
:1010840060632263E261A26162612261E260A26044
:1010940062605A514FF08073E262A2626262E3635B
:1010A40030BD00BF4D1000084FF0000080F31188E0
:1010B400BFF34F8FBFF36F8F70474FF0500080F333
:1010C4001188BFF34F8FBFF36F8F704710B590B087
:1010D4002822002106A800F008FA0021142201A801
:1010E40000F003FA4FF480330122022407930E9395
:1010F4004FF4E01306A806920A920F930D94FFF79B
:101104003FFA0F234FF4806201930023214601A884
:101114000294039304920593FFF70CFC10B010BDE6
:1011240030B587B0FFF7C9FFFFF7A6F8FFF7CEFF8A
:101134001022002102A800F0D8F91A4B1A4D9A691E
:10114400284642F020029A619A69012102F02002A5
:101154000092009A9A69002442F008029A619B69FD
:10116400002203F008030193019BFFF703FA012314
:1011740002930393022302A9284605930494FFF7DC
:101184000DF94FF4E1330948094A846080E80C0002
:101194000C23C460046143618461C461FFF7EAFC09
:1011A40007B030BD00100240000C0140B400002024
:1011B4000038014008B54FF4FA70FFF781F8FAE7F8
:1011C40006480068006880F3088862B661B6BFF319
:1011D4004F8FBFF36F8F00DF00BF704708ED00E053
:1011E4000E4B82B09A6942F001029A619A6902F048
:1011F40001020092009ADA6942F08052DA61DB69F6
:10120400074A03F080530193019B536823F0E06382
:1012140043F08063536002B0704700BF0010024087
:101224000000014010B5044686B01022002102A837
:1012340000F05BF92268174B9A4228D103F5584312
:101244009A6902A942F480429A619A69124802F4A6
:1012540080420092009A9A6942F004029A619B6962
:1012640003F004030193019B4FF4007302930223E0
:10127400039303230593FFF791F84FF480630293DC
:10128400002302A9044803930493FFF787F806B0E8
:1012940010BD00BF00380140000801407047FEE760
:1012A400FEE7FEE7FEE70000084B1846006800680A
:1012B400B0E8F00F80F30988BFF36F8F4FF00000A0
:1012C40080F311884EF00D0E704700BFA800002077
:1012D400704700000C4B1B461A68EFF30980BFF3FC
:1012E4006F8F20E9F00F10602DE90840FFF730FE02
:1012F400BDE808401A681068B0E8F00F80F3098868
:10130400BFF36F8F704700BFA80000202DE9F341A1
:1013140001248DF80740FEF7C1FFFEF7CBFF1B4FFA
:1013240006463B681BB11A680AB19D6855B9184B4B
:101334001B78012B03D1A30701D5FFF706FE02B0EA
:10134400BDE8F0812868F8B143689E421CD3037855
:1013540013F001010CD0836898472946D5F804801E
:101364003868FFF7FEFC284600F0ACF84546DDE798
:101374009A07F2D50DF107031822C068FFF728FD7C
:101384009DF807301C43E8E76D68CFE7B000002004
:101394009C00002008B50A4B0246196809B909499E
:1013A40019606946186802448A4206D900F058F860
:1013B4000C2303604FF0FF3008BD1A6008BD00BF66
:1013C4008C000020F80000200F4B1A6842F0010244
:1013D4001A6059680D4A0A405A601A6822F08472E9
:1013E40022F480321A601A6822F480221A605A6841
:1013F40022F4FE025A604FF41F029A604FF000621A
:10140400034B9A60704700BF001002400000FFF8D1
:1014140000ED00E0002103E00B4B5B584350043126
:101424000A480B4B42189A42F6D30A4A02E00023B8
:1014340042F8043B084B9A42F9D3FFF7C5FF00F08A
:1014440015F8FFF7DBFD7047E416000800000020E4
:101454007000002070000020F8000020FEE700006B
:10146400014B1868704700BF0C00002070B50025C0
:101474000C4E0D4CA41BA410A54209D100F002F996
:1014840000250A4E0A4CA41BA410A54205D170BD28
:1014940056F8253098470135EEE756F82530984739
:1014A4000135F2E7DC160008DC160008DC1600083B
:1014B400E0160008024B0146186800F06BB800BF44
:1014C4000C000020024B0146186800F017B800BF5A
:1014D4000C00002010B5431E0A44914200D110BDF7
:1014E40011F8014B03F8014FF7E703460244934216
:1014F40000D1704703F8011BF9E7000038B5054631
:10150400002943D051F8043C0C1F002BB8BFE41849
:1015140000F0B6F81E4A1368104633B963601460CD
:101524002846BDE8384000F0ACB8A3420BD9216886
:101534006218934201BF1A685B68521822606360A4
:101544000460EDE713465A680AB1A242FAD9196851
:101554005818A0420BD120680144581882421960DF
:10156400DED110685268014419605A60D8E702D984
:101574000C232B60D4E7206821188A4201BF11682C
:1015840052680918216062605C60C9E738BD00BF19
:101594009000002070B5CD1C25F0030508350C2DF6
:1015A40038BF0C25002D064601DBA94203D90C23C4
:1015B4003360002070BD00F063F8234A14682146AC
:1015C40091B9224C23681BB9304600F041F82060E1
:1015D4002946304600F03CF8431C26D10C23304603
:1015E400336000F04EF8E4E70B685B1B1AD40B2B56
:1015F4000FD90B60CC18CD50304600F042F804F1FE
:101604000B00231D20F00700C31A1BD05A42E250DE
:1016140070BD8C420BBF63684B681360636018BF76
:101624000C46E9E70C464968CAE7C41C24F00304E5
:10163400A04205D0211A304600F00AF80130CDD07E
:101644002560D9E770BD00BF900000209400002001
:1016540038B50023054C054608462360FFF79AFE7B
:10166400431C02D1236803B12B6038BDF400002071
:10167400034611F8012B03F8012B002AF9D1704716
:1016840070477047F8B500BFF8BC08BC9E46704769
:0C169400F8B500BFF8BC08BC9E467047CB
:1016A00002030405060708090A0B0C0D0E0F1010A3
:1016B0007461736B20310D0A007461736B20320DFD
:1016C0000A000000000000000000010203040607F9
:0C16D000080900000000010203040000F3
:0416DC0009020008F7
:0416E000E501000818
:1016E40001000000100000000024F400100000209D
:1016F40000000000000000000000000000000000E6
:1017040000000000000000000000000000000000D5
:1017140000000000000000000000000000000000C5
:1017240000000000000000000000000000000000B5
:1017340000000000000000000000000000000000A5
:101744000000000000000000000000000000000095
:0400000508001419C2
:00000001FF
