:020000040800F2
:1000000000500020FD170008891600088D16000812
:10001000AD160008AF160008B11600080000000079
:10002000000000000000000000000000B3160008FF
:10003000D316000800000000D516000805170008B8
:10004000451800084518000845180008451800081C
:10005000451800084518000845180008451800080C
:1000600045180008451800084518000845180008FC
:1000700045180008451800084518000845180008EC
:1000800045180008451800084518000845180008DC
:1000900045180008451800084518000845180008CC
:1000A00045180008451800084518000845180008BC
:1000B00045180008451800084518000845180008AC
:1000C000451800084518000845180008451800089C
:1000D000451800084518000845180008451800088C
:1000E00045180008451800084518000800000000E1
:1000F0000000000000000000000000000000000000
:0C01000000000000000000005FF808F1A3
:10010C0010B5054C237833B9044B13B10448AFF345
:10011C0000800123237010BD780000200000000037
:10012C005C1A000808B5034B1BB103490348AFF335
:10013C00008008BD000000007C0000205C1A000854
:10014C0038B50E4B054618784FF47A73B3FBF0F3C1
:10015C000B4A1068B0FBF3F000F092F8044658B963
:10016C000F2D09D8024629464FF0FF3000F054F805
:10017C00044B20461D6038BD012038BD0000002016
:10018C001000002004000020074A08B51368032063
:10019C0043F01003136000F02DF80020FFF7D0FFA0
:1001AC0001F018FA002008BD00200240034A044B5D
:1001BC0011681B780B441360704700BFA00200202D
:1001CC0000000020014B1868704700BFA0020020FF
:1001DC0038B50446FFF7F6FF0546631C1EBF044BFB
:1001EC001B78E418FFF7EEFF401B8442FAD838BDA9
:1001FC0000000020074A0002D36800F4E06023F4FA
:10020C00E0631B041B0C43F0BF6343F40033034354
:10021C00D360704700ED00E0174B30B5DC68C4F3D9
:10022C000224C4F10703251D042B28BF0423062D2B
:10023C004FF0010598BF002405FA03F303F1FF33D7
:10024C0088BF033C1940A14005FA04F4013C22404C
:10025C00002842EA01024FEA0212A9BF00F16040F5
:10026C00064BD2B200F56140BBBF00F00F00D2B21A
:10027C0080F800231A5430BD00ED00E014ED00E0CE
:10028C000138B0F1807F0AD2F021064B064A586043
:10029C0082F823100020072298601A607047012012
:1002AC00704700BF10E000E000ED00E02DE9F74FD3
:1002BC0000242646664BDFF8A8E1DFF8A8C10A68DF
:1002CC0032FA06F502D103B0BDE8F08F4FF0010809
:1002DC0008FA06F802EA080290457FD14D68122D03
:1002EC0000F0AA8000F28380022D00F0A28077D863
:1002FC00002D00F08980012D00F099804FF00F093E
:10030C00FF2A93BF824606F18045083DD0F800B025
:10031C0092BFB500D0F804B0AD0009FA05F82BEA8D
:10032C00080804FA05F588BF00F1040A48EA050537
:10033C00CAF80050D1F804A01AF0805F4ED0454D99
:10034C00444FAD6926F0030845F00105BD61BD6958
:10035C0008F1804805F00105019508F5803806F094
:10036C00030B019D4FEA8B0BD8F8085009FA0BF9D7
:10037C0025EA0909384DA84263D005F58065A842E5
:10038C0061D005F58065A8425FD005F58065A8426F
:10039C000CBF0325042505FA0BF545EA0905C8F839
:1003AC0008501D681AF4803F14BF154395431D6017
:1003BC005D681AF4003F14BF154395435D609D685A
:1003CC001AF4801F14BF154395439D60DD681AF421
:1003DC00001F14BF2A4325EA0202DA6001366EE7D9
:1003EC00032D22D0112D89D1CC68043486E71B4F04
:1003FC00BD4209D012D8DFF870904D4504D009F5F4
:10040C0080394D457FF47AAF8C68C4B1012C0CBF98
:10041C00C0F81080C0F8148008246FE77545F3D03D
:10042C006545F1D0DFF84490EBE7002466E7CC6833
:10043C0064E7CC68083461E7CC680C345EE70424CC
:10044C005CE70025A7E70125A5E70225A3E700BF88
:10045C00000401400010024000080140000021107F
:10046C0000003110000032100000111000002210AA
:10047C000AB1016170470904FBE7016800224B696E
:10048C0013F4806310D06FF480634B6120230263FC
:10049C0080F83D3080F83E20036C80F83C2043F01F
:1004AC000403036401207047184670472DE9F84394
:1004BC00044617469946C1F307488EB22568B8F131
:1004CC00010F0CBF6B69AB6936EA030314BF012043
:1004DC00002008B9BDE8F8836B695A0516D52B685E
:1004EC00202243F400732B606FF480636B61002354
:1004FC00236384F83D2084F83E30226C42F00402E1
:10050C00226484F83C300120BDE8F8837B1CD5D0F4
:10051C00FFF758FEA0EB0900874201D3002FCDD185
:10052C0000232022236384F83D2084F83E30226C83
:10053C0042F02002E4E770B504460D4616462368E7
:10054C005B695B0701D5002070BD2046FFF795FF66
:10055C00A8B96A1CF3D0FFF735FE801B854201D386
:10056C00002DECD100232022236384F83D2084F855
:10057C003E30226C84F83C3042F020022264012090
:10058C0070BD2DE9F843044690461F46089EC1F302
:10059C0007498DB22368B9F1010F0CBF5B699B69E8
:1005AC0035EA03030CBF01230023434502D000208E
:1005BC00BDE8F8837B1CEDD0FFF704FE801B87425F
:1005CC0001D3002FE6D100232022236384F83D20A1
:1005DC0084F83E30226C84F83C3042F020022264D5
:1005EC000120BDE8F88370B504460D461646236815
:1005FC005B691B0601D5002070BD2046FFF73DFF4F
:10060C00A8B96A1CF3D0FFF7DDFD801B854201D32E
:10061C00002DECD100232022236384F83D2084F8A4
:10062C003E30226C84F83C3042F0200222640120DF
:10063C0070BD00002DE9FF4115460268984613680D
:10064C000B9E43F4807313600F4600960A9B0022A6
:10065C004FF001110446FFF794FF18B1012004B0CC
:10066C00BDE8F081236807F0FE071F610A9A334644
:10067C0016492046FFF71AFF0028EFD12368039094
:10068C005A690A9903929B69324603932046039B4D
:10069C00FFF7A9FF40B1236C042B01BF226813683C
:1006AC0043F400731360D9E7B8F1010F236802D14A
:1006BC00EDB21D61D3E72A0A1A610A993246204627
:1006CC00FFF791FF0028E6D12368F1E70200010053
:1006DC002DE9F743044699460F4690460C9EFFF7CA
:1006EC0071FD94F83D300546202B03D0022003B059
:1006FC00BDE8F0830090192301223B492046FFF707
:10070C0040FF0028F2D194F83C30012BEED00123AD
:10071C0084F83C30236820461A68D10758BF1A6801
:10072C0039465CBF42F001021A601A6822F400627A
:10073C001A60212384F83D30402384F83E30002396
:10074C0023640A9B01956362BDF82C300096638587
:10075C00638D42462385254BE3624B46FFF76AFFC8
:10076C0000282AD00120C2E7FFF73DFF40B1236CDF
:10077C00042B01BF2268136843F400731360F1E784
:10078C00636A27681A4612F8011B39616262628D2E
:10079C00218D013A92B262857A69481E80B2520765
:1007AC0020850AD548B15A7802333A616362638D69
:1007BC000239013B9BB221856385238D2A46314644
:1007CC002046002BD0D1FFF7B6FE0028CFD12268EF
:1007DC00136843F400731360202384F83C0084F8FE
:1007EC003D3084F83E0082E7020010000000FFFF5D
:1007FC002DE9F341054608B901203CE00368DB070D
:10080C0010D42B689F075DD42B68190700F19480D6
:10081C002B685A0700F1BE80E869002840F02C8153
:10082C00002028E08F4C636803F00C03042B07D0E6
:10083C00636803F00C03082B09D16368DE0306D54B
:10084C0023689C03DDD56B68002BDAD1D4E76B6889
:10085C00B3F5803F12D1236843F480332360FFF754
:10086C00B1FC064623689803CBD4FFF7ABFC801B86
:10087C006428F7D9032002B0BDE8F0819BB9236846
:10088C0023F480332360236823F480232360FFF751
:10089C0099FC064623689903B3D5FFF793FC801B9C
:1008AC006428F7D9E6E7B3F5A02F236803D143F406
:1008BC0080232360CFE723F480332360236823F461
:1008CC008023CBE7674C636813F00C0F07D0636889
:1008DC0003F00C03082B10D16368DA030DD42368E2
:1008EC009B0702D52B69012B86D123686A6923F0FB
:1008FC00F80343EAC203236086E72A695A4B6AB1BC
:10090C0001221A60FFF75EFC064623689F07ECD4B1
:10091C00FFF758FC801B0228F7D9ABE71A60FFF7EA
:10092C0051FC0646236898077FF56EAFFFF74AFC2B
:10093C00801B0228F6D99DE7AA694A4C4B4BDAB1C9
:10094C0001221A60FFF73EFC0646636A9B070DD531
:10095C004FF4FA52464B1B68B3FBF2F3019300BF02
:10096C00019B5A1E0192002BF9D151E7FFF72AFC8B
:10097C00801B0228E9D97DE71A60FFF723FC0646A5
:10098C00636A9F077FF544AFFFF71CFC801B0228AE
:10099C00F6D96FE7334CE369D80024D40127E36917
:1009AC0043F08053E361E36903F080530093009BB1
:1009BC00304E3368D90518D5EB68012B26D1236A44
:1009CC0043F001032362FFF7FDFB41F288368046BA
:1009DC00236A9B073FD5002F3FF41EAFE36923F03A
:1009EC008053E36118E70027E2E7336843F4807330
:1009FC003360FFF7E7FB80463368DA05DCD4FFF79A
:100A0C00E1FBA0EB08006428F6D933E7ABB9236A05
:100A1C0041F2883823F001032362236A23F0040394
:100A2C002362FFF7CFFB0646236A9807D3D5FFF75F
:100A3C00C9FB801B4045F7D91CE7052B236A03D162
:100A4C0043F004032362BAE723F001032362236A11
:100A5C0023F00403B6E7FFF7B5FBA0EB0800B042A8
:100A6C00B6D907E70010024000004242800442421F
:100A7C0010000020007000402A4B5A681C4602F0FF
:100A8C000C02082A3DD00023274E022833602BD1BC
:100A9C00FFF798FB0746236899011FD42B6AB3F51F
:100AAC00803F05D16268A96822F400320A43626073
:100ABC00696A62680B4322F4741213436360012366
:100ACC003360FFF77FFB054623689A013FF5A8AE1C
:100ADC00FFF778FB401B0228F6D9CBE6FFF772FB39
:100AEC00C01B0228D7D9C5E6FFF76CFB0546236867
:100AFC009B017FF595AEFFF765FB401B0228F6D9ED
:100B0C00B8E601283FF4B7AE58682B6A00F480327F
:100B1C009A427FF471AE6B6A00F47010C01A18BF61
:100B2C000120A8E6001002406000424230B5194B8B
:100B3C0087B002AC03F110052246186859680833D7
:100B4C0003C2AB421446F7D101238DF804300223C3
:100B5C0011498DF805304B6803F00C02082A17D1A7
:100B6C00C3F3834206A80244DB0312F8102C0CD505
:100B7C004B680A48C3F34043504306AA134413F886
:100B8C00143CB0FBF3F007B030BD05485043FAE716
:100B9C000248F8E7741A00080010024000127A00AC
:100BAC0000093D002DE9F0410D46044610B9012025
:100BBC00BDE8F081454A136803F007038B4229D343
:100BCC0021688E0731D4CA0744D4404A136803F015
:100BDC0007039D4267D322683D4D12F0040F6ED17E
:100BEC00130706D56B68226923F4605343EAC203EA
:100BFC006B60FFF79BFF6B68364AC3F30313D35C40
:100C0C00D840354B1860354B1868FFF799FA00201F
:100C1C00BDE8F081136823F007030B4313601368DE
:100C2C0003F007039942C2D1CAE7294B11F0040F14
:100C3C001EBF5A6842F4E0625A60080742BF5A6805
:100C4C0042F460525A605A68A06822F0F0020243E3
:100C5C005A60B8E762681E4E012A33681BD113F440
:100C6C00003FA4D0736841F2883823F00303134388
:100C7C007360FFF7A7FA07467368626803F00C030A
:100C8C00B3EB820FA1D0FFF79DFAC01B4045F3D9FF
:100C9C000320BDE8F081022A02D113F0007FE0E7C7
:100CAC0013F0020FDDE7136823F007032B431360E7
:100CBC00136803F007039D427FF479AF8BE76B68F1
:100CCC00E16823F4E0630B436B6089E7002002408A
:100CDC000010024002220008100000200400002036
:100CEC00044B054A5B68C3F30223D35C034A1068C8
:100CFC00D84070470010024012220008100000205B
:100D0C00044B054A5B68C3F3C223D35C034A1068E7
:100D1C00D84070470010024012220008100000203A
:100D2C0038B505460368C1681A69192422F4405283
:100D3C000A431A6182680069D9680243686921F420
:100D4C00B05121F00C0102430A43DA605A69A969D7
:100D5C0022F440720A435A610D4A934214D1FFF7B0
:100D6C00CFFF60436C686422A400B0FBF4F0B0FBCE
:100D7C00F2F402FB14031B013233B3FBF2F32968C8
:100D8C0003EB04138B6038BDFFF7AAFFE9E700BF44
:100D9C0000380140F8B504460E4617461D4621683A
:100DAC000B6836EA030301D10020F8BD6B1CF7D0A9
:100DBC0095B923680320DA6822F4D072DA605A6994
:100DCC0022F001025A61202384F8393084F83A3039
:100DDC00002384F83830F8BDFFF7F4F9C01B8542C6
:100DEC00DDD2E6E710B5044640B390F8393003F095
:100DFC00FF021BB980F8382000F004FC2423226881
:100E0C0084F83930D368204623F40053D360FFF7BD
:100E1C0087FF236800201A6922F490421A615A69EC
:100E2C0022F02A025A61DA6842F40052DA60202376
:100E3C00E06384F8393084F83A3010BD012010BDDD
:100E4C002DE9F0411F4690F839300446202B0D4611
:100E5C0090464ED1002949D0002A47D090F838301E
:100E6C00012B46D0012380F838300023C3632123A3
:100E7C0080F83930FFF7A6F90646A4F82480A4F8C8
:100E8C002680E38C9BB26BB93B4632464021204610
:100E9C00FFF780FFA8B9202384F8380084F8393094
:100EAC00BDE8F081E38C3246013B9BB2E384A3683E
:100EBC008021B3F5805F20463B460ED1FFF76AFFD9
:100ECC0010B10320BDE8F0812B882268C3F308031E
:100EDC005360236943B90235D3E7FFF75BFF002862
:100EEC00EFD123682A785A600135CAE70120BDE8A2
:100EFC00F0810220BDE8F0817FB500F0C0FA00233C
:100F0C00029304930123094A01930592084A136042
:100F1C004FF4807302220393064B1A7000F0E6F82C
:100F2C0001A800F0FFF807B05DF804FBA11500085C
:100F3C00A8020020A4020020012208B5044B1A705C
:100F4C0000F03CF900F092FABDE8084000F028BB34
:100F5C00A402002028B1002303608360436018467C
:100F6C0070470620704708B50C2000F091FC024633
:100F7C0030B1FFF7EFFF18B1104600F091FC0022E2
:100F8C00104608BD68B161B103682BB9816041603E
:100F9C00013303600020704782688A605160816071
:100FAC00F6E70620704710B500282FD000292DD069
:100FBC000368002B2CD04268846891420CD1013B11
:100FCC0003604B6843600BB100229A60A14204BFDE
:100FDC004B688360002010BDA14213D1013B03601C
:100FEC008B688360002BF5D00020586010BD8A42BE
:100FFC00546806D1013B036093685C60526893604F
:10100C00E8E72246002AF2D1072010BD062010BDC9
:10101C00042010BD2DE9F8430F46044600285BD090
:10102C0012F0100801D1002956D02D4E02F0040503
:10103C000DB100F024FA6368A268B8F1000F22D059
:10104C009A420FD9A069013363600368002BEFD07B
:10105C00D0F804904946FFF7A6FF49463068FFF7E1
:10106C0091FFE5E700F088F8814601463068FFF70C
:10107C009AFF4946E069FFF785FF0DB100F0F6F9DC
:10108C0000F0CAF9D4E79A42ECD922683946606973
:10109C0000F00EFC62692368E168A0681A4400FB4A
:1010AC0003139A426368A06903F101036360036848
:1010BC00626128BF616143B144682146FFF773FF49
:1010CC00074B21461868FFF75DFF15B90020BDE8F6
:1010DC00F88300F0CBF9F9E70620BDE8F88300BFF0
:1010EC00B402002000B101707047000008B5FFF792
:1010FC003AFF034B1860B0FA80F0400908BD00BFFE
:10110C00B4020020014638B1044B186803680BB9CF
:10111C00034B1960FFF736BF06207047B40200205E
:10112C00B8020020F7B5054610B3876807F1280010
:10113C0000F0AEFB0446D8B1009700F1280300F193
:10114C000C06EA682430296900F06EF92B682A69CC
:10115C00E360012323610023E261AA6863612262D8
:10116C002660A36063602046FFF7CCFF08B1FEE762
:10117C000024204603B0F0BD084A30B51068084D75
:10118C00036841681833074C2B6011B9064B1B6878
:10119C0059680B6811601833236030BDB802002009
:1011AC00AC020020B0020020B402002008B5FFF70A
:1011BC00E3FFBDE8084000F02FB9000008B5FFF7C9
:1011CC00D2FE034B1860B0FA80F0400908BD00BF96
:1011DC00BC02002070B54FF0FF36012586B0094CDB
:1011EC008DF817000DF1170300930296019501235A
:1011FC00002278212046FFF76BFA0028F2D106B0C6
:10120C0070BD00BFC4020020F0B505464FF0FF379B
:10121C00074C85B08EB28DE8E00001234022782186
:10122C002046FFF755FA0028F5D105B0F0BD00BFF8
:10123C00C402002008B52120FFF7CCFF0020FFF7E7
:10124C00C9FF7F20FFF7C6FF2220FFF7C3FF002056
:10125C00FFF7C0FF0320FFF7BDFFBDE808404FF4C8
:10126C0000710148FFF7D0BF94000020030613D48F
:10127C001F2911D8CB0800EBC3100123FF2A074A02
:10128C0001F007010BBF03FA01F18B40135C115CF9
:10129C000CBF194399431154704700BF94000020B0
:1012AC002DE9F04F87B0804606A800E90600234CD4
:1012BC009DF81070227899463A447F2A9DF811B017
:1012CC0008DD00201E4920700A785A441F2ACCBF22
:1012DC0008700A70A8F120020BFB02F300936FEA6E
:1012EC0009030025DFF858A003935D4506D340465B
:1012FC0023781F44277007B0BDE8F08F0026009BB1
:10130C000599EA1831F8123001939DF80C300293CC
:10131C00BE4201D30135E8E7019B9AF80010207812
:10132C0003FA06F21304304429444CBF4A46029A8D
:10133C00C9B2C0B2FFF79AFF0136E9E7C00200203C
:10134C00C1020020F7B51F466D468DE80600461E0B
:10135C0074784CB195E8060020463B46FFF7A0FF99
:10136C0016F8014FA042F3D0204603B0F0BD0000A8
:10137C0038B5064D064C4FF0FF3307222946204660
:10138C00FFF75EFD6420FEF723FFF4E7F021000871
:10139C001803002038B5074D074C4FF0FF330722D8
:1013AC0029462046FFF74CFD4FF47A70FEF710FFEC
:1013BC00F3E700BFF8210008180300207FB51423C1
:1013CC00012400254FF40076009300F08BF8FFF712
:1013DC0093FD0D4B01A80593019402950396CDF84E
:1013EC0010D0FFF79FFE02230193084B01A8059331
:1013FC0003960495FFF796FE21460548FFF772FE0B
:10140C00FFF79AFDFEE700BF7D130008A11300084B
:10141C00C2020020FEE700004FF08052014B1A6020
:10142C00704700BF04ED00E030B5D8B1D1B1CBB1FD
:10143C00039D21F00101443D5C19046022620022ED
:10144C000948A16360632263E261A2616261226167
:10145C00E260A26062605A514FF08073E262A26255
:10146C006262E36330BD00BF211400084FF000003E
:10147C0080F31188BFF36F8FBFF34F8F70474FF01E
:10148C00500080F31188BFF36F8FBFF34F8F7047FD
:10149C0010B590B02822002106A800F014FA002103
:1014AC00142201A800F00FFA4FF480330122022419
:1014BC0007930E934FF4E01306A806920A920F932B
:1014CC000D94FFF795F90F234FF4806201930023DD
:1014DC00214601A80294039304920593FFF762FB43
:1014EC0010B010BD30B589B0FFF7C9FFFEF74CFE48
:1014FC00FFF7CEFF102200210DEB020000F0E3F904
:10150C00204B214D9A69284642F010029A619A6943
:10151C004FF4005102F010020192019A9A690024D2
:10152C0042F020029A619A6902F020020292029A19
:10153C009A6942F008029A619B69002203F0080341
:10154C000393039BFEF794FF4FF400530493012382
:10155C000593022304A9284607930694FEF7A6FEDA
:10156C004FF4E13309480A4A846080E80C000C23EC
:10157C00C460046143618461C461FFF733FC09B04A
:10158C0030BD00BF001002400010014018030020C5
:10159C000038014008B54FF4FA70FEF719FEFAE76F
:1015AC00094B0A4A1B681B6818331360084800680B
:1015BC00006880F3088862B661B6BFF34F8FBFF343
:1015CC006F8F00DF00BF7047B8020020B002002010
:1015DC0008ED00E00A4B82B09A6942F001029A6170
:1015EC009A6902F001020092009ADA6942F0805284
:1015FC00DA61DB6903F080530193019B02B0704701
:10160C000010024010B5044686B01022002102A83A
:10161C0000F059F92268174B9A4228D103F5584328
:10162C009A6902A942F480429A619A69124802F4BA
:10163C0080420092009A9A6942F004029A619B6976
:10164C0003F004030193019B4FF4007302930223F4
:10165C00039303230593FEF729FE4FF48063029353
:10166C00002302A9044803930493FEF71FFE06B05F
:10167C0010BD00BF00380140000801407047000059
:10168C0008B5054C054DFF2394E806002846FFF7E6
:10169C0059FEFFF7CFFDF6E70800002000220008F6
:1016AC00FEE7FEE7FEE718460068B0E8F00F80F3AF
:1016BC000988BFF36F8F4FF0000080F311884EF054
:1016CC000D0E704770477047094B0A4A1B68126829
:1016DC00EFF30980BFF36F8F20E9F00F18601068EB
:1016EC00B0E8F00F80F30988BFF36F8F704700BF2D
:1016FC00AC020020B0020020F8B5FEF757FDFEF753
:10170C0061FD1A4E0546336853B94FF4FA73B5FBB5
:10171C00F3F003FB105038BBBDE8F840FFF746BDB3
:10172C001A68002AF1D05C68002CEED02368CBB18B
:10173C005A68954216D31A7812F001010BD09B68A7
:10174C009847214667683068FFF72DFC204600F06B
:10175C00A7F83C46E8E79207F3D51822D868FFF7BC
:10176C0059FCEEE76468DFE7F8BD00BFBC0200205F
:10177C0008B50A4B0246196809B909491960694646
:10178C00186802448A4206D900F058F80C2303600A
:10179C004FF0FF3008BD1A6008BD00BF9402002056
:1017AC005C0300200F4B1A6842F001021A60596862
:1017BC000D4A0A405A601A6822F0847222F4803270
:1017CC001A601A6822F480221A605A6822F4FE0207
:1017DC005A604FF41F029A604FF00062034B9A60FC
:1017EC00704700BF001002400000FFF800ED00E061
:1017FC00002103E00B4B5B58435004310A480B4B60
:10180C0042189A42F6D30A4A02E0002342F8043BFB
:10181C00084B9A42F9D3FFF7C5FF00F015F8FFF714
:10182C00CDFD704724220008000000207800002025
:10183C00780000205C030020FEE70000014B1868D4
:10184C00704700BF1400002070B500250C4E0D4CE5
:10185C00A41BA410A54209D100F0FAF800250A4EE9
:10186C000A4CA41BA410A54205D170BD56F8253016
:10187C0098470135EEE756F8253098470135F2E7E1
:10188C001C2200081C2200081C2200082022000830
:10189C00024B0146186800F06BB800BF1400002022
:1018AC00024B0146186800F017B800BF1400002066
:1018BC0010B5431E0A44914200D110BD11F8014BE2
:1018CC0003F8014FF7E703460244934200D17047F7
:1018DC0003F8011BF9E7000038B50546002943D091
:1018EC0051F8043C0C1F002BB8BFE41800F0AEF804
:1018FC001E4A1368104633B9636014602846BDE86D
:10190C00384000F0A4B8A3420BD921686218934266
:10191C0001BF1A685B685218226063600460EDE7CF
:10192C0013465A680AB1A242FAD919685818A0424B
:10193C000BD120680144581882421960DED110681E
:10194C005268014419605A60D8E702D90C232B6005
:10195C00D4E7206821188A4201BF1168526809181F
:10196C00216062605C60C9E738BD00BF980200204E
:10197C0070B5CD1C25F0030508350C2D38BF0C2592
:10198C00002D064601DBA94203D90C23336000204D
:10199C0070BD00F05BF8234A1468214691B9224CC3
:1019AC0023681BB9304600F041F8206029463046C8
:1019BC0000F03CF8431C26D10C233046336000F079
:1019CC0046F8E4E70B685B1B1AD40B2B0FD90B60A2
:1019DC00CC18CD50304600F03AF804F10B00231D22
:1019EC0020F00700C31A1BD05A42E25070BD8C4243
:1019FC000BBF63684B681360636018BF0C46E9E764
:101A0C000C464968CAE7C41C24F00304A04205D064
:101A1C00211A304600F00AF80130CDD02560D9E704
:101A2C0070BD00BF980200209C02002038B5002336
:101A3C00054C054608462360FFF79AFE431C02D16D
:101A4C00236803B12B6038BD5803002070477047E2
:101A5C00F8B500BFF8BC08BC9E467047F8B500BF8F
:081A6C00F8BC08BC9E4670475F
:101A740002030405060708090A0B0C0D0E0F1010CB
:101A84000000000000000000000000000000000052
:101A940000000000001000100010001000100010E2
:101AA40000000010000000000028002800280000AA
:101AB40000000000000000000000000000240024DA
:101AC400007C00240048007C00480048000000001E
:101AD40000380054005000380014005400540038FA
:101AE400001000000020005400580030002800546A
:101AF4000014000800000000001000280028001056
:101B040000340048004800340000000000100010B9
:101B140000100000000000000000000000000000B1
:101B240000080010002000200020002000200020D9
:101B34000010000800200010000800080008000839
:101B440000080008001000200010003800100028D1
:101B54000000000000000000000000000000000081
:101B640000100010007C00100010000000000000B5
:101B74000000000000000000000000000000001051
:101B840000100010000000000000000000000038F9
:101B94000000000000000000000000000000000041
:101BA4000000000000000010000000000008000811
:101BB40000100010001000100020002000000000A1
:101BC40000380044004400540044004400440038F9
:101BD4000000000000100030005000100010001041
:101BE400001000100000000000380044004400040D
:101BF400000800100020007C0000000000380044B1
:101C04000004001800040004004400380000000030
:101C140000080018002800280048007C000800087C
:101C240000000000007C0040004000780004000434
:101C340000440038000000000038004400400078F0
:101C4400004400440044003800000000007C00040C
:101C540000080010001000200020002000000000F8
:101C64000038004400440038004400440044003874
:101C7400000000000038004400440044003C00041C
:101C840000440038000000000000000000100000C4
:101C94000000000000000010000000000000000030
:101CA40000000010000000000000001000100010F0
:101CB40000000000000C003000400030000C000068
:101CC40000000000000000000000007C0000007C18
:101CD4000000000000000000000000000060001888
:101CE40000040018006000000000000000380044F8
:101CF40000040008001000100000001000000000A4
:101D040000380044004C0054005C0040004000389F
:101D14000000000000100028002800280028007C93
:101D240000440044000000000078004400440078AF
:101D340000440044004400780000000000380044DF
:101D44000040004000400040004400380000000013
:101D540000700048004400440044004400480070FF
:101D640000000000007C00400040007C0040004077
:101D74000040007C00000000007C0040004000782F
:101D840000400040004000400000000000380044D3
:101D940000400040005C00440044003800000000A3
:101DA400004400440044007C0044004400440044D7
:101DB4000000000000380010001000100010001097
:101DC40000100038000000000004000400040004B7
:101DD40000040004004400380000000000440048EF
:101DE400005000600050004800480044000000001B
:101DF4000040004000400040004000400040007CA3
:101E0400000000000044006C006C005400440044D6
:101E140000440044000000000044006400640054D6
:101E24000054004C004C0044000000000038004402
:101E34000044004400440044004400380000000012
:101E44000078004400440044007800400040004012
:101E540000000000003800440044004400440044F2
:101E6400005400380004000000780044004400449A
:101E74000078004800480044000000000038004496
:101E84000040003000080004004400380000000056
:101E9400007C001000100010001000100010001052
:101EA4000000000000440044004400440044004496
:101EB40000440038000000000044004400440028AE
:101EC4000028002800100010000000000044004416
:101ED400005400540054006C002800280000000046
:101EE40000440028002800100010002800280044A6
:101EF40000000000004400440028002800100010E6
:101F04000010001000000000007C00040008001015
:101F1400001000200040007C0000000000180010A9
:101F24000010001000100010001000100010001825
:101F3400002000200010001000100010000800080D
:101F4400000000000030001000100010001000100D
:101F54000010001000100030001000280028004479
:101F6400000000000000000000000000000000006D
:101F7400000000000000000000000000000000FE5F
:101F8400002000100000000000000000000000001D
:101F9400000000000000000000380044003C004441
:101FA400004C003400000000004000400058006471
:101FB40000440044006400580000000000000000D9
:101FC4000038004400400040004400380000000095
:101FD400000400040034004C00440044004C00346D
:101FE400000000000000000000380044007C0040B5
:101FF4000044003800000000000C0010007C0010B9
:10200400001000100010001000000000000000008C
:102014000034004C00440044004C003400040078B8
:102024000040004000580064004400440044004460
:1020340000000000001000000070001000100010EC
:1020440000100010000000000010000000700010DC
:102054000010001000100010001000E000400040CC
:102064000048005000600050004800440000000098
:10207400007000100010001000100010001000107C
:1020840000000000000000000078005400540054D8
:1020940000540054000000000000000000580064D8
:1020A400004400440044004400000000000000001C
:1020B400003800440044004400440038000000009C
:1020C400000000000058006400440044006400580C
:1020D40000400040000000000034004C0044004474
:1020E400004C0034000400040000000000580064A8
:1020F40000400040004000400000000000000000DC
:10210400003800440030000800440038000000009B
:10211400002000200078002000200020002000186B
:10212400000000000000000000440044004400449B
:10213400004C003400000000000000000044004493
:102144000028002800280010000000000000000003
:10215400005400540054006C0028002800000000C3
:102164000000000000440028001000100028004473
:102174000000000000000000004400440028002883
:10218400001000100010006000000000007C000837
:10219400001000200040007C000000000018001027
:1021A4000010001000200020001000100010001883
:1021B400001000100010001000100010001000109B
:1021C400001000100030001000100010000800087B
:1021D4000010001000100030000000000000007427
:1021E400004C000000000000000000007461736BEC
:1021F400310D0A007461736B320D0A003100000066
:1022040000000000000001020304060708090000A2
:082214000000010203040000B8
:04221C003101000884
:042220000D010008A4
:102224000100000010000000070A0000841A0008E2
:102234000024F4001800002000000000000000004A
:10224400000000000000000000000000000000008A
:10225400000000000000000000000000000000007A
:10226400000000000000000000000000000000006A
:10227400000000000000000000000000000000005A
:10228400000000000000000000000000000000004A
:08229400000000000000000042
:04000005080017FDDB
:00000001FF
