:020000040800F2
:1000000000500020CD120008791100087B11000873
:100010007D1100087F110008811100080000000018
:100020000000000000000000000000008311000834
:10003000A311000800000000A5110008D511000858
:1000400015130008151300081513000815130008F0
:1000500015130008151300081513000815130008E0
:1000600015130008151300081513000815130008D0
:1000700015130008151300081513000815130008C0
:1000800015130008151300081513000815130008B0
:1000900015130008151300081513000815130008A0
:1000A0001513000815130008151300081513000890
:1000B0001513000815130008151300081513000880
:1000C0001513000815130008151300081513000870
:1000D0001513000815130008151300081513000860
:1000E0001513000815130008151300080000000080
:1000F0000000000000000000000000000000000000
:0C01000000000000000000005FF808F1A3
:10010C0010B5054C237833B9044B13B10448AFF345
:10011C0000800123237010BD70000020000000003F
:10012C002C15000808B5034B1BB103490348AFF36A
:10013C00008008BD00000000740000202C15000891
:10014C0038B50E4B054618784FF47A73B3FBF0F3C1
:10015C000B4A1068B0FBF3F000F092F8044658B963
:10016C000F2D09D8024629464FF0FF3000F054F805
:10017C00044B20461D6038BD012038BD0000002016
:10018C000800002004000020074A08B5136803206B
:10019C0043F01003136000F02DF80020FFF7D0FFA0
:1001AC0000F090FF002008BD00200240034A044BE1
:1001BC0011681B780B441360704700BF9800002037
:1001CC0000000020014B1868704700BF9800002009
:1001DC0038B50446FFF7F6FF0546631C1EBF044BFB
:1001EC001B78E418FFF7EEFF401B8442FAD838BDA9
:1001FC0000000020074A0002D36800F4E06023F4FA
:10020C00E0631B041B0C43F0BF6343F40033034354
:10021C00D360704700ED00E0174B30B5DC68C4F3D9
:10022C000224C4F10703251D042B28BF0423062D2B
:10023C004FF0010598BF002405FA03F303F1FF33D7
:10024C0088BF033C1940A14005FA04F4013C22404C
:10025C00002842EA01024FEA0212A9BF00F16040F5
:10026C00064BD2B200F56140BBBF00F00F00D2B21A
:10027C0080F800231A5430BD00ED00E014ED00E0CE
:10028C000138B0F1807F0AD2F021064B064A586043
:10029C0082F823100020072298601A607047012012
:1002AC00704700BF10E000E000ED00E02DE9F74FD3
:1002BC0000242646664BDFF8A8E1DFF8A8C10A68DF
:1002CC0032FA06F502D103B0BDE8F08F4FF0010809
:1002DC0008FA06F802EA080290457FD14D68122D03
:1002EC0000F0AA8000F28380022D00F0A28077D863
:1002FC00002D00F08980012D00F099804FF00F093E
:10030C00FF2A93BF824606F18045083DD0F800B025
:10031C0092BFB500D0F804B0AD0009FA05F82BEA8D
:10032C00080804FA05F588BF00F1040A48EA050537
:10033C00CAF80050D1F804A01AF0805F4ED0454D99
:10034C00444FAD6926F0030845F00105BD61BD6958
:10035C0008F1804805F00105019508F5803806F094
:10036C00030B019D4FEA8B0BD8F8085009FA0BF9D7
:10037C0025EA0909384DA84263D005F58065A842E5
:10038C0061D005F58065A8425FD005F58065A8426F
:10039C000CBF0325042505FA0BF545EA0905C8F839
:1003AC0008501D681AF4803F14BF154395431D6017
:1003BC005D681AF4003F14BF154395435D609D685A
:1003CC001AF4801F14BF154395439D60DD681AF421
:1003DC00001F14BF2A4325EA0202DA6001366EE7D9
:1003EC00032D22D0112D89D1CC68043486E71B4F04
:1003FC00BD4209D012D8DFF870904D4504D009F5F4
:10040C0080394D457FF47AAF8C68C4B1012C0CBF98
:10041C00C0F81080C0F8148008246FE77545F3D03D
:10042C006545F1D0DFF84490EBE7002466E7CC6833
:10043C0064E7CC68083461E7CC680C345EE70424CC
:10044C005CE70025A7E70125A5E70225A3E700BF88
:10045C00000401400010024000080140000021107F
:10046C0000003110000032100000111000002210AA
:10047C000AB1016170470904FBE700002DE9F34163
:10048C00054608B901203CE00368DB0710D42B6853
:10049C009F075DD42B68190700F194802B685A07CD
:1004AC0000F1BE80E869002840F02C81002028E093
:1004BC008F4C636803F00C03042B07D0636803F0C4
:1004CC000C03082B09D16368DE0306D523689C0353
:1004DC00DDD56B68002BDAD1D4E76B68B3F5803FC0
:1004EC0012D1236843F480332360FFF76BFE06467A
:1004FC0023689803CBD4FFF765FE801B6428F7D9DB
:10050C00032002B0BDE8F0819BB9236823F480334B
:10051C002360236823F480232360FFF753FE0646F1
:10052C0023689903B3D5FFF74DFE801B6428F7D9D8
:10053C00E6E7B3F5A02F236803D143F480232360AF
:10054C00CFE723F480332360236823F48023CBE7A5
:10055C00674C636813F00C0F07D0636803F00C034F
:10056C00082B10D16368DA030DD423689B0702D5DE
:10057C002B69012B86D123686A6923F0F80343EABF
:10058C00C203236086E72A695A4B6AB101221A60BA
:10059C00FFF718FE064623689F07ECD4FFF712FE00
:1005AC00801B0228F7D9ABE71A60FFF70BFE064653
:1005BC00236898077FF56EAFFFF704FE801B0228B7
:1005CC00F6D99DE7AA694A4C4B4BDAB101221A6065
:1005DC00FFF7F8FD0646636A9B070DD54FF4FA52F8
:1005EC00464B1B68B3FBF2F3019300BF019B5A1EF1
:1005FC000192002BF9D151E7FFF7E4FD801B022893
:10060C00E9D97DE71A60FFF7DDFD0646636A9F07AF
:10061C007FF544AFFFF7D6FD801B0228F6D96FE7B4
:10062C00334CE369D80024D40127E36943F08053A9
:10063C00E361E36903F080530093009B304E336811
:10064C00D90518D5EB68012B26D1236A43F0010399
:10065C002362FFF7B7FD41F288368046236A9B0779
:10066C003FD5002F3FF41EAFE36923F08053E361C5
:10067C0018E70027E2E7336843F480733360FFF731
:10068C00A1FD80463368DA05DCD4FFF79BFDA0EBB7
:10069C0008006428F6D933E7ABB9236A41F28838ED
:1006AC0023F001032362236A23F004032362FFF780
:1006BC0089FD0646236A9807D3D5FFF783FD801B77
:1006CC004045F7D91CE7052B236A03D143F00403FB
:1006DC002362BAE723F001032362236A23F00403A5
:1006EC00B6E7FFF76FFDA0EB0800B042B6D907E7FD
:1006FC0000100240000042428004424208000020E8
:10070C00007000402A4B5A681C4602F00C02082A62
:10071C003DD00023274E022833602BD1FFF752FD2A
:10072C000746236899011FD42B6AB3F5803F05D186
:10073C006268A96822F400320A436260696A6268DE
:10074C000B4322F474121343636001233360FFF7ED
:10075C0039FD054623689A013FF5A8AEFFF732FD37
:10076C00401B0228F6D9CBE6FFF72CFDC01B022854
:10077C00D7D9C5E6FFF726FD054623689B017FF513
:10078C0095AEFFF71FFD401B0228F6D9B8E60128ED
:10079C003FF4B7AE58682B6A00F480329A427FF46B
:1007AC0071AE6B6A00F47010C01A18BF0120A8E675
:1007BC00001002406000424230B5194B87B002ACC9
:1007CC0003F11005224618685968083303C2AB427E
:1007DC001446F7D101238DF80430022311498DF80A
:1007EC0005304B6803F00C02082A17D1C3F383427F
:1007FC0006A80244DB0312F8102C0CD54B680A48EF
:10080C00C3F34043504306AA134413F8143CB0FB03
:10081C00F3F007B030BD05485043FAE70248F8E75B
:10082C00441500080010024000127A0000093D0037
:10083C002DE9F0410D46044610B90120BDE8F081C8
:10084C00454A136803F007038B4229D321688E07AE
:10085C0031D4CA0744D4404A136803F007039D42BD
:10086C0067D322683D4D12F0040F6ED1130706D5E5
:10087C006B68226923F4605343EAC2036B60FFF791
:10088C009BFF6B68364AC3F30313D35CD840354BDC
:10089C001860354B1868FFF753FC0020BDE8F08159
:1008AC00136823F007030B431360136803F007036B
:1008BC009942C2D1CAE7294B11F0040F1EBF5A68E6
:1008CC0042F4E0625A60080742BF5A6842F4605230
:1008DC005A605A68A06822F0F00202435A60B8E7E6
:1008EC0062681E4E012A33681BD113F4003FA4D05A
:1008FC00736841F2883823F0030313437360FFF7E6
:10090C0061FC07467368626803F00C03B3EB820F5B
:10091C00A1D0FFF757FCC01B4045F3D90320BDE81D
:10092C00F081022A02D113F0007FE0E713F0020FEE
:10093C00DDE7136823F007032B431360136803F000
:10094C0007039D427FF479AF8BE76B68E16823F472
:10095C00E0630B436B6089E700200240001002400B
:10096C00641500080800002004000020044B054A10
:10097C005B68C3F30223D35C034A1068D84070470A
:10098C00001002407415000808000020044B054AB2
:10099C005B68C3F3C223D35C034A1068D84070472A
:1009AC0000100240741500080800002038B50546F8
:1009BC000368C1681A69192422F440520A431A6167
:1009CC0082680069D9680243686921F4B05121F04A
:1009DC000C0102430A43DA605A69A96922F4407295
:1009EC000A435A610D4A934214D1FFF7CFFF60437B
:1009FC006C686422A400B0FBF4F0B0FBF2F402FBD0
:100A0C0014031B013233B3FBF2F3296803EB041319
:100A1C008B6038BDFFF7AAFFE9E700BF0038014043
:100A2C00F8B504460E4617461D4621680B6836EA93
:100A3C00030301D10020F8BD6B1CF7D095B92368D6
:100A4C000320DA6822F4D072DA605A6922F00102CB
:100A5C005A61202384F8393084F83A30002384F822
:100A6C003830F8BDFFF7AEFBC01B8542DDD2E6E7A0
:100A7C0010B5044640B390F8393003F0FF021BB9AF
:100A8C0080F8382000F036FB2423226884F83930B3
:100A9C00D368204623F40053D360FFF787FF236805
:100AAC0000201A6922F490421A615A6922F02A0233
:100ABC005A61DA6842F40052DA602023E06384F869
:100ACC00393084F83A3010BD012010BD2DE9F041C9
:100ADC001F4690F839300446202B0D4690464ED1D7
:100AEC00002949D0002A47D090F83830012B46D045
:100AFC00012380F838300023C363212380F8393078
:100B0C00FFF760FB0646A4F82480A4F82680E38C4B
:100B1C009BB26BB93B46324640212046FFF780FF23
:100B2C00A8B9202384F8380084F83930BDE8F08166
:100B3C00E38C3246013B9BB2E384A3688021B3F57E
:100B4C00805F20463B460ED1FFF76AFF10B10320B1
:100B5C00BDE8F0812B882268C3F308035360236936
:100B6C0043B90235D3E7FFF75BFF0028EFD12368C9
:100B7C002A785A600135CAE70120BDE8F0810220CD
:100B8C00BDE8F0817FB500F0F2F9002302930493E5
:100B9C000123094A01930592084A13604FF48073AC
:100BAC0002220393064B1A7000F0E6F801A800F03D
:100BBC00FFF807B05DF804FB91100008A0000020BE
:100BCC009C000020012208B5044B1A7000F03CF97F
:100BDC0000F0C4F9BDE8084000F05ABA9C000020AF
:100BEC0028B10023036083604360184670470620D9
:100BFC00704708B50C2000F0B3FB024630B1FFF78C
:100C0C00EFFF18B1104600F0B3FB0022104608BDF0
:100C1C0068B161B103682BB9816041600133036035
:100C2C000020704782688A6051608160F6E7062078
:100C3C00704710B500282FD000292DD00368002B49
:100C4C002CD04268846891420CD1013B03604B6804
:100C5C0043600BB100229A60A14204BF4B688360D1
:100C6C00002010BDA14213D1013B03608B6883604F
:100C7C00002BF5D00020586010BD8A42546806D174
:100C8C00013B036093685C6052689360E8E722461E
:100C9C00002AF2D1072010BD062010BD042010BD83
:100CAC002DE9F8430F46044600285BD012F01008DB
:100CBC0001D1002956D02D4E02F004050DB100F0E3
:100CCC0056F96368A268B8F1000F22D09A420FD986
:100CDC00A069013363600368002BEFD0D0F8049057
:100CEC004946FFF7A6FF49463068FFF791FFE5E755
:100CFC0000F088F8814601463068FFF79AFF4946B4
:100D0C00E069FFF785FF0DB100F028F900F0FCF861
:100D1C00D4E79A42ECD922683946606900F030FB7E
:100D2C0062692368E168A0681A4400FB03139A42C5
:100D3C006368A06903F1010363600368626128BF03
:100D4C00616143B144682146FFF773FF074B2146AD
:100D5C001868FFF75DFF15B90020BDE8F88300F0B7
:100D6C00FDF8F9E70620BDE8F88300BFAC000020D1
:100D7C0000B101707047000008B5FFF73AFF034B54
:100D8C001860B0FA80F0400908BD00BFAC0000202C
:100D9C00014638B1044B186803680BB9034B196052
:100DAC00FFF736BF06207047AC000020B0000020D3
:100DBC00F7B5054610B3876807F1280000F0D0FAA4
:100DCC000446D8B1009700F1280300F10C06EA683C
:100DDC002430296900F0A0F82B682A69E36001230C
:100DEC0023610023E261AA68636122622660A3602A
:100DFC0063602046FFF7CCFF08B1FEE700242046D5
:100E0C0003B0F0BD084A30B51068084D036841685E
:100E1C001833074C2B6011B9064B1B6859680B68CB
:100E2C0011601833236030BDB0000020A4000020F6
:100E3C00A8000020AC00002008B5FFF7E3FFBDE8D8
:100E4C00084000F061B8000008B5FFF7D2FE034B74
:100E5C001860B0FA80F0400908BD00BFB400002053
:100E6C0038B5064D064C4FF0FF3307222946204675
:100E7C00FFF72CFE6420FFF7ABF9F4E754150008DC
:100E8C001001002038B5074D074C4FF0FF330722F7
:100E9C0029462046FFF71AFE4FF47A70FFF798F9AF
:100EAC00F3E700BF5C150008100100207FB5142388
:100EBC00012400254FF40076009300F08BF8FFF727
:100ECC0061FE0D4B01A80593019402950396CDF894
:100EDC0010D0FFF76DFF02230193084B01A8059377
:100EEC0003960495FFF764FF21460548FFF740FF82
:100EFC00FFF768FEFEE700BF6D0E0008910E0008BC
:100F0C00B8000020FEE700004FF08052014B1A6041
:100F1C00704700BF04ED00E030B5D8B1D1B1CBB112
:100F2C00039D21F00101443D5C1904602262002202
:100F3C000948A16360632263E261A261626122617C
:100F4C00E260A26062605A514FF08073E262A2626A
:100F5C006262E36330BD00BF110F00084FF0000068
:100F6C0080F31188BFF36F8FBFF34F8F70474FF033
:100F7C00500080F31188BFF36F8FBFF34F8F704712
:100F8C0010B590B02822002106A800F004FA002128
:100F9C00142201A800F0FFF94FF48033012202243F
:100FAC0007930E934FF4E01306A806920A920F9340
:100FBC000D94FFF763FA0F234FF480620193002323
:100FCC00214601A80294039304920593FFF730FC89
:100FDC0010B010BD30B589B0FFF7C9FFFFF7D4F8DA
:100FEC00FFF7CEFF102200210DEB020000F0D3F929
:100FFC00204B214D9A69284642F010029A619A6959
:10100C004FF4005102F010020192019A9A690024E7
:10101C0042F020029A619A6902F020020292029A2E
:10102C009A6942F008029A619B69002203F0080356
:10103C000393039BFFF71CFA4FF400530493012313
:10104C000593022304A9284607930694FFF72EF96B
:10105C004FF4E13309480A4A846080E80C000C2301
:10106C00C460046143618461C461FFF701FD09B090
:10107C0030BD00BF001002400010014010010020E4
:10108C000038014008B54FF4FA70FFF7A1F8FAE701
:10109C00094B0A4A1B681B68183313600848006820
:1010AC00006880F3088862B661B6BFF34F8FBFF358
:1010BC006F8F00DF00BF7047B0000020A800002039
:1010CC0008ED00E00A4B82B09A6942F001029A6185
:1010DC009A6902F001020092009ADA6942F0805299
:1010EC00DA61DB6903F080530193019B02B0704716
:1010FC000010024010B5044686B01022002102A850
:10110C0000F049F92268174B9A4228D103F558434D
:10111C009A6902A942F480429A619A69124802F4CF
:10112C0080420092009A9A6942F004029A619B698B
:10113C0003F004030193019B4FF400730293022309
:10114C00039303230593FFF7B1F84FF480630293E5
:10115C00002302A9044803930493FFF7A7F806B0F1
:10116C0010BD00BF00380140000801407047FEE789
:10117C00FEE7FEE7FEE718460068B0E8F00F80F3E4
:10118C000988BFF36F8F4FF0000080F311884EF089
:10119C000D0E704770477047094B0A4A1B6812685E
:1011AC00EFF30980BFF36F8F20E9F00F1860106820
:1011BC00B0E8F00F80F30988BFF36F8F704700BF62
:1011CC00A4000020A8000020F8B5FEF7EFFFFEF702
:1011DC00F9FF1A4E0546336853B94FF4FA73B5FB51
:1011EC00F3F003FB105038BBBDE8F840FFF724BE0A
:1011FC001A68002AF1D05C68002CEED02368CBB1C1
:10120C005A68954216D31A7812F001010BD09B68DC
:10121C009847214667683068FFF70BFD204600F0C1
:10122C00A7F83C46E8E79207F3D51822D868FFF7F1
:10123C0037FDEEE76468DFE7F8BD00BFB4000020BF
:10124C0008B50A4B0246196809B90949196069467B
:10125C00186802448A4206D900F058F80C2303603F
:10126C004FF0FF3008BD1A6008BD00BF8C00002095
:10127C00540100200F4B1A6842F001021A605968A1
:10128C000D4A0A405A601A6822F0847222F48032A5
:10129C001A601A6822F480221A605A6822F4FE023C
:1012AC005A604FF41F029A604FF00062034B9A6031
:1012BC00704700BF001002400000FFF800ED00E096
:1012CC00002103E00B4B5B58435004310A480B4B95
:1012DC0042189A42F6D30A4A02E0002342F8043B31
:1012EC00084B9A42F9D3FFF7C5FF00F015F8FFF74A
:1012FC00DDFD704784150008000000207000002000
:10130C007000002054010020FEE70000014B18681B
:10131C00704700BF0C00002070B500250C4E0D4C22
:10132C00A41BA410A54209D100F0FAF800250A4E1E
:10133C000A4CA41BA410A54205D170BD56F825304B
:10134C0098470135EEE756F8253098470135F2E716
:10135C007C1500087C1500087C1500088015000819
:10136C00024B0146186800F06BB800BF0C0000205F
:10137C00024B0146186800F017B800BF0C000020A3
:10138C0010B5431E0A44914200D110BD11F8014B17
:10139C0003F8014FF7E703460244934200D170472C
:1013AC0003F8011BF9E7000038B50546002943D0C6
:1013BC0051F8043C0C1F002BB8BFE41800F0AEF839
:1013CC001E4A1368104633B9636014602846BDE8A2
:1013DC00384000F0A4B8A3420BD92168621893429C
:1013EC0001BF1A685B685218226063600460EDE705
:1013FC0013465A680AB1A242FAD919685818A04281
:10140C000BD120680144581882421960DED1106853
:10141C005268014419605A60D8E702D90C232B603A
:10142C00D4E7206821188A4201BF11685268091854
:10143C00216062605C60C9E738BD00BF900000208D
:10144C0070B5CD1C25F0030508350C2D38BF0C25C7
:10145C00002D064601DBA94203D90C233360002082
:10146C0070BD00F05BF8234A1468214691B9224CF8
:10147C0023681BB9304600F041F8206029463046FD
:10148C0000F03CF8431C26D10C233046336000F0AE
:10149C0046F8E4E70B685B1B1AD40B2B0FD90B60D7
:1014AC00CC18CD50304600F03AF804F10B00231D57
:1014BC0020F00700C31A1BD05A42E25070BD8C4278
:1014CC000BBF63684B681360636018BF0C46E9E799
:1014DC000C464968CAE7C41C24F00304A04205D09A
:1014EC00211A304600F00AF80130CDD02560D9E73A
:1014FC0070BD00BF900000209400002038B5002380
:10150C00054C054608462360FFF79AFE431C02D1A2
:10151C00236803B12B6038BD500100207047704721
:10152C00F8B500BFF8BC08BC9E467047F8B500BFC4
:08153C00F8BC08BC9E46704794
:1015440002030405060708090A0B0C0D0E0F101000
:101554007461736B310D0A007461736B320D0A0090
:10156400000000000000000001020304060708094F
:08157400000000000102030465
:04157C003101000831
:041580000D01000851
:1015840001000000100000000024F40010000020FE
:101594000000000000000000000000000000000047
:1015A4000000000000000000000000000000000037
:1015B4000000000000000000000000000000000027
:1015C4000000000000000000000000000000000017
:1015D4000000000000000000000000000000000007
:1015E40000000000000000000000000000000000F7
:04000005080012CD10
:00000001FF
